{
  "contractName": "TipStickerSets",
  "abi": [
    {
      "anonymous": false,
      "inputs": [
        {
          "indexed": false,
          "internalType": "string",
          "name": "name",
          "type": "string"
        },
        {
          "indexed": false,
          "internalType": "uint256",
          "name": "tips",
          "type": "uint256"
        },
        {
          "indexed": false,
          "internalType": "address payable",
          "name": "owner",
          "type": "address"
        }
      ],
      "name": "StickerSetTipped",
      "type": "event"
    },
    {
      "constant": true,
      "inputs": [],
      "name": "name",
      "outputs": [
        {
          "internalType": "string",
          "name": "",
          "type": "string"
        }
      ],
      "payable": false,
      "stateMutability": "view",
      "type": "function"
    },
    {
      "constant": true,
      "inputs": [],
      "name": "setsCount",
      "outputs": [
        {
          "internalType": "uint256",
          "name": "",
          "type": "uint256"
        }
      ],
      "payable": false,
      "stateMutability": "view",
      "type": "function"
    },
    {
      "constant": true,
      "inputs": [
        {
          "internalType": "string",
          "name": "",
          "type": "string"
        }
      ],
      "name": "stickerSets",
      "outputs": [
        {
          "internalType": "uint256",
          "name": "tips",
          "type": "uint256"
        },
        {
          "internalType": "address payable",
          "name": "owner",
          "type": "address"
        },
        {
          "internalType": "bool",
          "name": "isValue",
          "type": "bool"
        }
      ],
      "payable": false,
      "stateMutability": "view",
      "type": "function"
    },
    {
      "constant": false,
      "inputs": [
        {
          "internalType": "string",
          "name": "_name",
          "type": "string"
        },
        {
          "internalType": "address payable",
          "name": "_owner",
          "type": "address"
        }
      ],
      "name": "TipStickerSetOwner",
      "outputs": [],
      "payable": true,
      "stateMutability": "payable",
      "type": "function"
    }
  ],
  "bytecode": "0x60806040526040518060400160405280600e81526020017f546970537469636b6572536574730000000000000000000000000000000000008152506000908051906020019061004f929190610062565b5034801561005c57600080fd5b50610107565b828054600181600116156101000203166002900490600052602060002090601f016020900481019282601f106100a357805160ff19168380011785556100d1565b828001600101855582156100d1579182015b828111156100d05782518255916020019190600101906100b5565b5b5090506100de91906100e2565b5090565b61010491905b808211156101005760008160009055506001016100e8565b5090565b90565b610941806101166000396000f3fe60806040526004361061003f5760003560e01c806306fdde0314610044578063258ed921146100d45780632b08ef15146101ee578063be7f24da146102c9575b600080fd5b34801561005057600080fd5b506100596102f4565b6040518080602001828103825283818151815260200191508051906020019080838360005b8381101561009957808201518184015260208101905061007e565b50505050905090810190601f1680156100c65780820380516001836020036101000a031916815260200191505b509250505060405180910390f35b3480156100e057600080fd5b5061019a600480360360208110156100f757600080fd5b810190808035906020019064010000000081111561011457600080fd5b82018360208201111561012657600080fd5b8035906020019184600183028401116401000000008311171561014857600080fd5b91908080601f016020809104026020016040519081016040528093929190818152602001838380828437600081840152601f19601f820116905080830192505050505050509192919290505050610392565b604051808481526020018373ffffffffffffffffffffffffffffffffffffffff1673ffffffffffffffffffffffffffffffffffffffff16815260200182151515158152602001935050505060405180910390f35b6102c76004803603604081101561020457600080fd5b810190808035906020019064010000000081111561022157600080fd5b82018360208201111561023357600080fd5b8035906020019184600183028401116401000000008311171561025557600080fd5b91908080601f016020809104026020016040519081016040528093929190818152602001838380828437600081840152601f19601f820116905080830192505050505050509192919290803573ffffffffffffffffffffffffffffffffffffffff1690602001909291905050506103ff565b005b3480156102d557600080fd5b506102de6108cd565b6040518082815260200191505060405180910390f35b60008054600181600116156101000203166002900480601f01602080910402602001604051908101604052809291908181526020018280546001816001161561010002031660029004801561038a5780601f1061035f5761010080835404028352916020019161038a565b820191906000526020600020905b81548152906001019060200180831161036d57829003601f168201915b505050505081565b6002818051602081018201805184825260208301602085012081835280955050505050506000915090508060000154908060010160009054906101000a900473ffffffffffffffffffffffffffffffffffffffff16908060010160149054906101000a900460ff16905083565b662386f26fc1000034101561041357600080fd5b60008251141561042257600080fd5b662386f26fc100003373ffffffffffffffffffffffffffffffffffffffff1631101561044d57600080fd5b8073ffffffffffffffffffffffffffffffffffffffff163373ffffffffffffffffffffffffffffffffffffffff16141561048657600080fd5b61048e6108d3565b6002836040518082805190602001908083835b602083106104c457805182526020820191506020810190506020830392506104a1565b6001836020036101000a0380198251168184511680821785525050505050509050019150509081526020016040518091039020604051806060016040529081600082015481526020016001820160009054906101000a900473ffffffffffffffffffffffffffffffffffffffff1673ffffffffffffffffffffffffffffffffffffffff1673ffffffffffffffffffffffffffffffffffffffff1681526020016001820160149054906101000a900460ff161515151581525050905080604001511561067f576002836040518082805190602001908083835b602083106105bf578051825260208201915060208101905060208303925061059c565b6001836020036101000a0380198251168184511680821785525050505050509050019150509081526020016040518091039020604051806060016040529081600082015481526020016001820160009054906101000a900473ffffffffffffffffffffffffffffffffffffffff1673ffffffffffffffffffffffffffffffffffffffff1673ffffffffffffffffffffffffffffffffffffffff1681526020016001820160149054906101000a900460ff16151515158152505090506106b7565b6040518060600160405280600081526020018373ffffffffffffffffffffffffffffffffffffffff1681526020016001151581525090505b8173ffffffffffffffffffffffffffffffffffffffff166108fc349081150290604051600060405180830381858888f193505050501580156106fd573d6000803e3d6000fd5b5034816000015101816000018181525050806002846040518082805190602001908083835b602083106107455780518252602082019150602081019050602083039250610722565b6001836020036101000a03801982511681845116808217855250505050505090500191505090815260200160405180910390206000820151816000015560208201518160010160006101000a81548173ffffffffffffffffffffffffffffffffffffffff021916908373ffffffffffffffffffffffffffffffffffffffff16021790555060408201518160010160146101000a81548160ff0219169083151502179055509050507f3b3e966ad0a23517f32153581bd2faeddd5e11afd9f9cd1560a6a5d023de835c8334836020015160405180806020018481526020018373ffffffffffffffffffffffffffffffffffffffff1673ffffffffffffffffffffffffffffffffffffffff168152602001828103825285818151815260200191508051906020019080838360005b8381101561088c578082015181840152602081019050610871565b50505050905090810190601f1680156108b95780820380516001836020036101000a031916815260200191505b5094505050505060405180910390a1505050565b60015481565b604051806060016040528060008152602001600073ffffffffffffffffffffffffffffffffffffffff168152602001600015158152509056fea265627a7a72315820cda1d706d0e33dc0a31c61c3504b5e97d17839fc5df73f503f3aa006e82b757364736f6c63430005100032",
  "source": "pragma solidity >=0.4.22 <0.9.0;\r\n\r\ncontract TipStickerSets {\r\n    string public name = \"TipStickerSets\";\r\n    uint256 public setsCount;\r\n    mapping(string => StickerSet) public stickerSets;\r\n\r\n    struct StickerSet {\r\n        uint256 tips;\r\n        address payable owner;\r\n        bool isValue;\r\n    }\r\n    event StickerSetTipped(\r\n        string name,\r\n        uint256 tips,\r\n        address payable owner\r\n    );\r\n    modifier hasMinimumTip() {\r\n        require(msg.value >= 0.01 ether);\r\n        _;\r\n    }\r\n\r\n    function TipStickerSetOwner(string memory _name, address payable _owner)\r\n        public\r\n        payable\r\n        hasMinimumTip\r\n    {\r\n        require(bytes(_name).length != 0);\r\n        require(msg.sender.balance >= 0.01 ether);\r\n        require(msg.sender != _owner); // owners are not allowed to tip themselves.\r\n\r\n        StickerSet memory _stickerSet = stickerSets[_name];\r\n        if (_stickerSet.isValue) {\r\n            _stickerSet = stickerSets[_name];\r\n        } else {\r\n            _stickerSet = StickerSet(0, _owner, true);\r\n        }\r\n        _owner.transfer(msg.value);\r\n        _stickerSet.tips = _stickerSet.tips + msg.value;\r\n        stickerSets[_name] = _stickerSet;\r\n\r\n        emit StickerSetTipped(_name, msg.value, _stickerSet.owner);\r\n    }\r\n}\r\n",
  "sourcePath": "C:\\Users\\Moji\\OneDrive\\Development Projects\\tipstickers\\client\\src\\contracts\\TipStickerSets.sol",
  "compiler": {
    "name": "solc",
    "version": "0.5.16+commit.9c3226ce.Emscripten.clang"
  },
  "schemaVersion": "3.4.4",
  "updatedAt": "2022-02-27T14:59:34.518Z",
  "networkType": "ethereum",
  "devdoc": {
    "methods": {}
  },
  "userdoc": {
    "methods": {}
  }
}